:100000000000042051060000C1060000C3060000E5
:10001000C5060000C7060000C9060000CB060000A8
:10002000000000000000000000000000CD060000FD
:10003000CF06000000000000D1060000D30600003B
:10004000D5060000D506000000000000D50600001F
:1000500000000000D50600000000000000000000C5
:10006000D5060000D5060000D5060000D506000024
:10007000D5060000D5060000D5060000D506000014
:10008000D5060000D50600000000000000000000BA
:10009000D5060000D50600000000000000000000AA
:1000A000D5060000D5060000D5060000D5060000E4
:1000B000D5060000D5060000D5060000D5060000D4
:1000C000D5060000D5060000D5060000D5060000C4
:1000D000D506000000000000D5060000000000006A
:1000E000D506000000000000D5060000D50600007F
:1000F00000000000D506000000000000D50600004A
:10010000000000000000000000000000D506000014
:10011000D506000000000000D5060000D50600004E
:1001200000000000D50600000000000000000000F4
:1001300000000000000000000000000000000000BF
:1001400000000000000000000000000000000000AF
:10015000D5060000000000000000000000000000C4
:10016000000000000000000000000000000000008F
:10017000000000000000000000000000000000007F
:10018000000000000000000000000000000000006F
:10019000000000000000000000000000000000005F
:100400000A0D53656564203D20256C750A0D0000BA
:10041000536C756D7074616C2025643A2025640AF4
:100420000D0000000A0D547279636B2070C3A52083
:10043000656E206B6E6170702066C3B67220617449
:10044000742073746172746120736C756D7067656C
:100450006E657261746F722E2E2E0A0D0052454524
:100460004E54206D616C6C6F6320737563636565BA
:10047000646564002F646174612F6A656E6B696ED8
:10048000732F776F726B73706163652F474E552DB5
:10049000746F6F6C636861696E2F61726D2D31339B
:1004A0002F7372632F6E65776C69622D637967773E
:1004B000696E2F6E65776C69622F6C6962632F734A
:1004C00074646C69622F72616E642E63002C206606
:1004D000756E6374696F6E3A200061737365727430
:1004E000696F6E2022257322206661696C65643A0B
:1004F0002066696C6520222573222C206C696E654C
:10050000202564257325730A00232D302B200068D5
:100510006C4C0065666745464700303132333435F0
:10052000363738394142434445460030313233345E
:0C05300035363738396162636465660057
:08053C0098000000010000001E
:100544000348044B834202D0034B03B1184770475E
:10055400640000206400002000000000064B0749EE
:10056400C91A891048BF0131491003D0044B0BB19B
:1005740001481847704700BF640000206400002051
:100584000000000010B5064C237843B9FFF7D8FFEC
:10059400044B13B10448AFF300800123237010BD52
:1005A40064000020000000001C32000008B5054B68
:1005B4001BB105490548AFF30080BDE80840FFF7CB
:1005C400CDBF00BF00000000680000201C32000006
:1005D400A3F5803A704700BF174B002B08BF134B9D
:1005E4009D46FFF7F5FF00218B460F461348144A3A
:1005F400121A01F04CFD0E4B002B00D098470D4B06
:10060400002B00D098470020002104000D000D4865
:10061400002802D00C48AFF3008001F087FD2000D1
:10062400290001F0C3FA01F08FFB00BF00000800AD
:10063400000000000000000000000420640000200E
:10064400F401002000000000000000000F49104ADF
:10065400104B00F010F81049104A114B00F00BF841
:100664001049114A114B00F006F81149114A124B76
:1006740000F001F806E0521A03DD043A9858885055
:10068400FBDC704700F0FEF9FFF7A6FF0000002036
:100694006400002090320000640000206400002008
:1006A400F43200006400002064000020F4320000F2
:1006B4006400002064000020F4320000FEE7FEE73E
:1006C400FEE7FEE7FEE7FEE7FEE7FEE7FEE7FEE7FE
:1006D400FEE700BF80B483B000AF154B1B687B609E
:1006E400144B1B683B607B68072B19D13B68023BAA
:1006F400032B13D801A252F823F000BF1107000006
:1007040015070000190700001D070000012308E079
:10071400002306E0002304E0002302E0002300E0BD
:10072400002318460C37BD465DF8047B704700BFB4
:100734003001FF003401FF0080B483B000AF154BDB
:100744001B687B60144B1B683B607B68072B19D1CB
:100754003B68023B032B13D801A252F823F000BFDD
:1007640075070000790700007D070000810700007D
:10077400012308E0012306E0002304E0002302E053
:10078400002300E0002318460C37BD465DF8047BC7
:10079400704700BF3001FF003401FF0080B483B014
:1007A40000AF154B1B687B60144B1B683B607B6878
:1007B400072B19D13B68023B032B13D801A252F833
:1007C40023F000BFD9070000DD070000E1070000A7
:1007D400E5070000012308E0002306E0002304E00D
:1007E400002302E0002300E0002318460C37BD4636
:1007F4005DF8047B704700BF3001FF003401FF0047
:1008040080B483B000AF154B1B687B60144B1B682E
:100814003B607B68072B19D13B68023B032B13D841
:1008240001A252F823F000BF3D0800004108000077
:100834004508000049080000012308E0012306E000
:10084400012304E0012302E0012300E00023184611
:100854000C37BD465DF8047B704700BF3001FF00D4
:100864003401FF0080B483B000AF154B1B687B607C
:10087400144B1B683B607B68072B19D13B68023B18
:10088400032B13D801A252F823F000BFA1080000E3
:10089400A5080000A9080000AD080000012308E035
:1008A400002306E0002304E0002302E0002300E02C
:1008B400002318460C37BD465DF8047B704700BF23
:1008C4003001FF003401FF0080B483B000AF154B4A
:1008D4001B687B60144B1B683B607B68072B19D13A
:1008E4003B68023B032B13D801A252F823F000BF4C
:1008F40005090000090900000D09000011090000A4
:10090400012308E0002306E0002304E0002302E0C2
:10091400002300E0002318460C37BD465DF8047B35
:10092400704700BF3001FF003401FF0080B483B082
:1009340000AF154B1B687B60144B1B683B607B68E6
:10094400072B19D13B68023B032B13D801A252F8A1
:1009540023F000BF690900006D090000710900005F
:1009640075090000012308E0002306E0002304E0E9
:10097400002302E0002300E0002318460C37BD46A4
:100984005DF8047B704700BF3001FF003401FF00B5
:1009940080B483B000AF154B1B687B60144B1B689D
:1009A4003B607B68072B19D13B68023B032B13D8B0
:1009B40001A252F823F000BFCD090000D1090000C4
:1009C400D5090000D9090000012308E0012306E04D
:1009D400012304E0012302E0012300E00023184680
:1009E4000C37BD465DF8047B704700BF3001FF0043
:1009F4003401FF0080B483B000AF154B1B687B60EB
:100A0400144B1B683B607B68072B19D13B68023B86
:100A1400032B13D801A252F823F000BF310A0000BF
:100A2400350A0000390A00003D0A0000002308E0EE
:100A3400002306E0002304E0012302E0012300E098
:100A4400002318460C37BD465DF8047B704700BF91
:100A54003001FF003401FF0080B400AF074B084AA7
:100A64001B68C2F84435054B054ADB69C2F84C35AE
:100A740000BFBD465DF8047B704700BF0080FF00E7
:100A84000060005080B582B000AFFFF74FFF03460F
:100A9400002B0CD0734B1B68002B08D1714B0D221B
:100AA4001A60714B01221A606F4B00221A600023F6
:100AB4007B6000237B6011E04FF47F024FF47F01E1
:100AC4007B68603351F8333019467B686033DB0050
:100AD40013445B680B607B6801337B607B681F2B6E
:100AE40008D84FF47F027B68603352F83330B3F197
:100AF400FF3FE1D1FFF7B6FE0346002B05D05B4B69
:100B040029221A605A4B03221A60FFF7E3FD0346B9
:100B1400002B07D0574B584A1A604FF0502301223C
:100B2400C3F85825FFF708FE0346002B02D0534BA9
:100B340000221A60FFF732FE0346002B11D04FF05B
:100B44005023D3F8003403F00103002B09D04FF0F5
:100B540050230022C3F814214FF050230022C3F87D
:100B64001821FFF74DFE0346002B0DD04FF0502304
:100B7400D3F8003403F00103002B05D04FF05023C9
:100B84006FF00102C3F80024FFF79EFE0346002B1A
:100B940002D0364B65221A60FFF7FAFE0346002B9B
:100BA40021D0374B1B68002B1DDA4FF05023032252
:100BB400C3F818254FF0502301229A6000BF4FF06C
:100BC4005023D3F80431002BF9D04FF050230022E6
:100BD400C3F804214FF050230122DA604FF0502370
:100BE4000122C3F81825FFF705FF0346002B1AD08E
:100BF4001E4B7E221A60234B7E221A60224B7F22D8
:100C04001A60224B00221A60214B00221A60214BE9
:100C140000221A60204B00221A60204B00221A6026
:100C24001F4B00221A6000F03FF81E4BD3F88C30A3
:100C34001C4A43F44063C2F88C30FFF70DFF194B94
:100C4400D3F88830174A43F47003C2F88830BFF3EE
:100C54004F8F00BFBFF36F8F00BF00BF0837BD4683
:100C640080BD00BF204A00501C4900500C47005072
:100C74003C470050309503504400EFBE4C250350D0
:100C8400202403503C49005018210050049E035076
:100C9400089E035010111050242100502C210050A4
:100CA400A012205000ED00E080B485B000AF144BDA
:100CB400FB60144BBB604FF47F037B6007E0FA6872
:100CC400131FFB60BB68191FB96012681A60FA68C9
:100CD4007B689A42F3D23F233B600B4A3B6803F59F
:100CE400E07352F82330084923F010023B6803F5FF
:100CF400E07341F823201437BD465DF8047B704748
:100D0400FC0FFF00FCFF07200030005080B483B0CC
:100D140000AF78607B681B6800BF0C37BD465DF888
:100D2400047B704780B400AF00BFBD465DF8047B10
:100D3400704780B400AF00BFBD465DF8047B7047C8
:100D440080B400AF00BFBD465DF8047B704780B43B
:100D540083B000AF786039603B6803F06043B3F15F
:100D6400005F0CBF01230023DBB218460C37BD46DD
:100D74005DF8047B704780B582B000AF78600B46A5
:100D84007B807B887A68134400221A607B887A68A7
:100D940013441846FFF7BAFF00BF0837BD4680BDAD
:100DA40080B483B000AF78600B467B807B887A6820
:100DB40013441B68002B14BF01230023DBB2184625
:100DC4000C37BD465DF8047B704780B483B000AF38
:100DD400786039607B683A68C3F8042300BF0C3735
:100DE400BD465DF8047B704780B485B000AF786081
:100DF4007B68D3F88034FB607B68FA68C3F880248E
:100E0400FB6818461437BD465DF8047B704780B410
:100E140083B000AF78607B680822C3F8002500BF68
:100E24000C37BD465DF8047B704780B483B000AFD7
:100E340078607B680022C3F8002500BF0C37BD46EC
:100E44005DF8047B704780B485B000AFF860B9608A
:100E54007A60FB68BA68C3F80C25FB687A68C3F843
:100E6400142500BF1437BD465DF8047B704780B479
:100E740085B000AFF860B9607A60FB68BA68C3F8FF
:100E84000825FB687A68C3F8102500BF1437BD46EF
:100E94005DF8047B704780B483B000AF78600B4684
:100EA400FB70FB787A68134401221A6000BF0C3788
:100EB400BD465DF8047B704780B483B000AF7860B2
:100EC40039603B685A783B689B781343DBB21A4617
:100ED4003B689B8813433A6812781A437B68C3F8CB
:100EE4006C2500BF0C37BD465DF8047B704780B4A9
:100EF40083B000AF786039607B683A68C3F8242512
:100F040000BF0C37BD465DF8047B704780B485B0E4
:100F140000AFF860B9607A60BA68FB68C3F844252A
:100F2400FB687A68C3F8482500BF1437BD465DF8EE
:100F3400047B704780B483B000AF78607B68D3F8DB
:100F44003C3518460C37BD465DF8047B704780B5C8
:100F540082B000AF786039603B681B6919467868D5
:100F6400FFF7C5FF3B68143319467868FFF7A4FF01
:100F74003B689B7E83F00103DBB2002B07D03B6808
:100F840019683B685B681A467868FFF75CFF3B6842
:100F94001B7D012B0ED13B689B7E83F00103DBB2EA
:100FA400002B07D03B6899683B68DB681A46786871
:100FB400FFF75DFFFFF7B6FE00BF0837BD4680BDF3
:100FC40080B584B000AFF860B96011461A460B468C
:100FD400FB711346BB714FF48072B968F86800F076
:100FE40016F94FF48272B968F86800F010F94FF4FA
:100FF4008472B968F86800F00AF94FF48872B96825
:10100400F86800F004F94FF48E72B968F86800F0DB
:10101400FEF84FF49072B968F86800F0F8F84FF4ED
:101024009272B968F86800F0F2F84FF4A272B968E5
:10103400F86800F0ECF84FF4A672B968F86800F0AC
:10104400E6F84FF4A872B968F86800F0E0F84FF4D5
:10105400AC72B968F86800F0DAF8FFF763FEBB79A0
:10106400002B03D0B968F868FFF7AFFEFFF75AFE0C
:1010740000BF1037BD4680BD80B586B000AFF860B4
:10108400B9607A607A68B968F86800F013F9786131
:10109400FFF748FE7B6918461837BD4680BD80B50A
:1010A40082B000AF786039600C217868FFF7F3FEF6
:1010B400FFF738FE00BF00224FF48001786800F08B
:1010C400F9F80346002BF6D03B68002B13D03B689D
:1010D4005B68002B0FD004217868FFF7DCFEFFF774
:1010E40021FE00BF3A684FF40031786800F0E2F85E
:1010F4000346002BF6D000BF0837BD4680BD000074
:1011040080B584B000AF78600B46FB700023FB60B1
:1011140008217868FFF7BFFEFB78002B0CD00A4B40
:10112400BB60FFF7FFFD0022B9687868FFF7A4FFF2
:10113400F860FB68002BF6D0FFF7F4FDFB68184657
:101144001037BD4680BD00BF0001400080B582B0AD
:1011540000AF78600B467B807B8819467868FFF780
:101164000AFEFFF7DFFD00BF0837BD4680BD80B52E
:1011740084B000AF7860FFF7E3FD7868FFF734FED2
:10118400F860FFF7DDFDFB6818461037BD4680BDEB
:1011940080B582B000AF78607868FFF738FEFFF75B
:1011A400C1FD00BF0837BD4680BD80B582B000AF29
:1011B40078607868FFF739FEFFF7B4FD00BF0837A1
:1011C400BD4680BD80B582B000AF78600B46FB7031
:1011D400FB7819467868FFF75EFEFFF7A3FD00BFB2
:1011E4000837BD4680BD80B584B000AFF860B960F3
:1011F4007A60BB68002B06D07A68B968F868FFF794
:1012040085FEFFF78FFD00BF1037BD4680BD80B55A
:1012140084B000AFF860B9601346FB80FB88A3F587
:1012240080739B08012202FA03F31A46BB68134039
:10123400002B04D0FB881946F868FFF79CFD00BF1B
:101244001037BD4680BD80B584B000AFF860B9608A
:101254003B601346FB80FB88A3F580739B08012247
:1012640002FA03F31A46BB681340002B1DD0FB8817
:101274001946F868FFF794FD0346002B15D0FB8848
:101284001946F868FFF777FD3B68002B0BD03B68E5
:101294001B68FA88A2F580729208012101FA02F211
:1012A4001A433B681A60012300E0002318461037F4
:1012B400BD4680BD80B586B000AFF860B9607A6085
:1012C40000233B61FFF735FD07F110034FF48072F3
:1012D400B968F868FFF7B7FF07F110034FF482729B
:1012E400B968F868FFF7AFFF07F110034FF4847291
:1012F400B968F868FFF7A7FF07F110034FF4887285
:10130400B968F868FFF79FFF07F110034FF48E7276
:10131400B968F868FFF797FF07F110034FF490726C
:10132400B968F868FFF78FFF07F110034FF4927262
:10133400B968F868FFF787FF07F110034FF4A2724A
:10134400B968F868FFF77FFF07F110034FF4A6723E
:10135400B968F868FFF777FF07F110034FF4A87234
:10136400B968F868FFF76FFF07F110034FF4AC7228
:10137400B968F868FFF767FFBB6803F01003002B38
:101384000AD1BB6803F40033002B05D0F868FFF7DB
:10139400D1FD7861FFF7D4FCFFF7C4FC3B69184624
:1013A4001837BD4680BD000080B584B000AF7860BA
:1013B4000023FB60786800F09CF80346002B02D001
:1013C400012B03D004E0054BFB6001E0044BFB6000
:1013D400FB6818461037BD4680BD00BF0025845009
:1013E4000028845080B586B000AF78600846114666
:1013F4001A460346FB700B46BB7013467B703B1DBD
:101404001846FFF7D1FF78617A687B69803253F818
:1014140022303B61114BFB60FB68DB433A691340AC
:101424003B61FA78BB785B001A437B789B001A43D4
:1014340097F820301B021A4397F824301B041343F7
:101444003A6913433B617A687B698032396943F8AE
:10145400221000BF1837BD4680BD00BF0F0F030028
:1014640080B584B002AF7860002301930023009319
:101474000023012201217868FFF7B4FF00BF083779
:10148400BD4680BD80B584B002AF78600B46FB706A
:10149400FB78002201920022009200220021786849
:1014A400FFF7A0FF00BF0837BD4680BD80B584B0FC
:1014B40000AF78603B1D1846FFF776FFF8607B6845
:1014C400012202FA03F31946F86800F004F800BF99
:1014D4001037BD4680BD80B483B000AF78603960FA
:1014E4007B683A689A6000BF0C37BD465DF8047BA0
:1014F400704780B485B000AF78607B681B68FB6080
:10150400FB6803F01F027B681A60FB685B091846DE
:101514001437BD465DF8047B704780B582B000AFD8
:1015240078607868FFF79CFFFFF7FCFB00BF083783
:10153400BD4680BD80B582B000AF78600B46FB70BD
:10154400FB7819467868FFF79DFFFFF7EBFB00BFB8
:101554000837BD4680BD80B582B000AF786078683A
:10156400FFF7A4FFFFF7DEFB00BF0837BD4680BDD1
:1015740080B58AB000AF786039603B6893F820305A
:1015840083F00103DBB2002B19D03B681B68B3F175
:10159400FF3F09D03B681B681846FFF7DCFF3B6838
:1015A4001B681846FFF7B9FF3B685B68B3F1FF3F60
:1015B40005D03B685B6800211846FFF7BBFF3B681A
:1015C4009B7E012B21D13B6893F8203083F00103EB
:1015D400DBB2002B19D03B68DB68B3F1FF3F05D0C9
:1015E4003B68DB6800211846FFF7A4FF3B689B6853
:1015F400B3F1FF3F09D03B689B681846FFF7ABFF88
:101604003B689B681846FFF788FF07F10C0300222C
:101614001A605A609A60DA601A615A619A613B688A
:101624001B68FB603B685B683B613B689B687B6154
:101634003B68DB68BB613B685B69FB613B6893F8B3
:10164400213087F826303A6807F120031A321068EF
:10165400186092889A807B681B6807F10C02114617
:101664001846FFF774FC786800F01EF87B681B7955
:1016740019460B4A0B46DB000B449B00134404330E
:101684001B68002B07D07B6818683B681A7E01230F
:101694000449FFF795FC00BF2837BD4680BD00BF55
:1016A400800000201003420080B586B000AF78604F
:1016B4007B681B6803F26453FB607B681B6803F55B
:1016C400AD63BB60BB681B68012B05D17B681B68DD
:1016D4000C211846FFF776FDFB681B68012B26D109
:1016E4007B681B681846FFF753FD7B681B68042161
:1016F4001846FFF767FD0023FB7549F640433B613D
:10170400FB681B68002B02D10123FB7505E03B69D4
:10171400013B3B613B69002BF2D17B681B68184697
:10172400FFF725FD7B681B681846FFF73EFD00BFE9
:101734001837BD4680BD000080B586B000AFF860A4
:10174400B9607A60FB681B791A461346DB001344C0
:101754009B00234A13447B61224B3B617B6993F8D2
:101764002030002B03D0204B3B613B6934E07B6984
:101774007A685A60BB68002B1BD0BB681A697B6906
:101784001A60BB6893F820107A6992F8223061F3EA
:10179400000382F82230BB6893F821107A6992F82A
:1017A400223061F3410382F82230B968F868FFF708
:1017B400DFFEFB681B681846FFF7EAFC7B69002222
:1017C4009A617B690022DA617B6900225A617B6934
:1017D400012283F820203B6918461837BD4680BD96
:1017E400800000200000AD0B0500AD0B80B588B073
:1017F40000AFF860B9607A603B60FB681B791A46F9
:101804001346DB0013449B00314A1344BB61314B44
:10181400FB61FB681B68B9681846FFF798FA034632
:1018240083F00103DBB2002B03D02B4BFB61FB697C
:101834004AE0F86800F056F80346002B03D0274B23
:10184400FB61FB6940E0BB697A685A61BB69BA68AD
:101854009A60FB681B684FF490711846FFF776FC9A
:10186400FB681B684FF4AC711846FFF76FFCFB680C
:101874001868BB699968BB695B691A46FFF7B3FCD2
:10188400FB681A68BB695B68002B0CBF012300234B
:10189400DBB219461046FFF733FC7861BB695B681D
:1018A400002B10D17B6903F48003002B02D00C4B76
:1018B400FB6105E0FB681B6800211846FFF7EFFB9E
:1018C400BB6900225A61FB6918462037BD4680BDBA
:1018D400800000200000AD0B0A00AD0B0B00AD0B27
:1018E4000800AD0B80B483B000AF78607B681B79CF
:1018F4001946094A0B46DB000B449B00134414337E
:101904001B68002B14BF01230023DBB218460C37DD
:10191400BD465DF8047B70478000002080B584B02C
:1019240000AF78600023FB60786800F0F4F80346A9
:10193400002B02D0012B03D004E0054BFB6001E037
:10194400044BFB60FB6818461037BD4680BD00BFE2
:10195400002584500028845080B586B000AF78609C
:10196400084611461A460346FB700B46BB701346E5
:101974007B703B1D1846FFF7D1FF78617A687B695D
:10198400803253F822303B61114BFB60FB68DB4330
:101994003A6913403B61FA78BB785B001A437B7861
:1019A4009B001A4397F820301B021A4397F82430FF
:1019B4001B0413433A6913433B617A687B698032A1
:1019C400396943F8221000BF1837BD4680BD00BFF7
:1019D4000F0F030080B584B002AF78600023019339
:1019E400002300930023012201217868FFF7B4FF4C
:1019F40000BF0837BD4680BD80B584B002AF7860B3
:101A04000B46FB70FB780022019200220092002218
:101A140000217868FFF7A0FF00BF0837BD4680BDEE
:101A240080B584B000AF78603B1D1846FFF776FFA1
:101A3400F8607B68012202FA03F31946F86800F0A3
:101A44004EF800BF1037BD4680BD80B584B000AFEE
:101A540078603B1D1846FFF761FFF8607B68012240
:101A640002FA03F31946F86800F047F800BF10378C
:101A7400BD4680BD80B582B000AF786039603B68F8
:101A8400002B03D17868FFF7E0FF02E07868FFF7E6
:101A9400C7FF00BF0837BD4680BD80B584B000AF26
:101AA40078603B1D1846FFF739FFF860F86800F0CE
:101AB4000AF802467B6822FA03F303F0010318468E
:101AC4001037BD4680BD80B483B000AF78607B68BA
:101AD4001B6918460C37BD465DF8047B704780B41B
:101AE40083B000AF786039607B683A689A6000BF61
:101AF4000C37BD465DF8047B704780B483B000AFFB
:101B0400786039607B683A68DA6000BF0C37BD469C
:101B14005DF8047B704780B485B000AF78607B6863
:101B24001B68FB60FB6803F01F027B681A60FB689C
:101B34005B0918461437BD465DF8047B7047000006
:101B440080B582B000AF786039603A680023796864
:101B54000348FFF74BFE00BF0837BD4680BD00BFFA
:101B64000000002080B500AF1720FFF796FF034662
:101B7400002B01D1012316E01820FFF78EFF034646
:101B8400002B01D102230EE00820FFF786FF034655
:101B9400002B01D1032306E00920FFF77EFF034653
:101BA400002BE1D10423184680BD0000B0B5C2B0BB
:101BB40000AF07F1D40324220021184600F067FA8D
:101BC4001423C7F8D4301623C7F8D8304FF0FF33A6
:101BD400C7F8DC304FF0FF33C7F8E0304FF0EB7359
:101BE400C7F8E830072387F8EC3007F1D403002264
:101BF40019464F48FFF7A0FD1C20FFF7EBFE1D2000
:101C0400FFF7E8FE1E20FFF7E5FE1F20FFF7E2FEC8
:101C140001211C20FFF72EFF01211D20FFF72AFFC1
:101C240001211E20FFF726FF01211F20FFF722FFBD
:101C340003211720FFF7E0FE03211820FFF7DCFE45
:101C440003210820FFF7D8FE03210920FFF7D4FE63
:101C5400384B0022C3F80825364B01221A60364B54
:101C640007F134041D460FCD0FC40FCD0FC40FCDA3
:101C74000FC495E8070003C4227007F13403392127
:101C84001846FFF75DFFFFF76DFFC7F80001294B0A
:101C9400D3F80435C7F8FC30D7F8FC0000F066F838
:101CA40007F17003D7F8FC202449184600F08CF99A
:101CB40007F17003184600F060FA03461A4607F16C
:101CC400700311461846FFF73BFF0023C7F80431A1
:101CD40028E000F079F80346194A82FB03129111B7
:101CE400DA178A1A4FF47A7101FB02F29B1AC7F8C9
:101CF400F830D7F804315A1C3846D7F8F83011496F
:101D040000F062F93B46184600F037FA03461A46DB
:101D14003B4611461846FFF713FFD7F80431013349
:101D2400C7F80431D7F80431042BD2DD90E700BFA3
:101D340000000020005001502404000000040000B2
:101D4400D34D62101004000008B5064B044613B1CD
:101D54000021AFF30080044B1B6803B19847204671
:101D640001F048FA00000000DC01002038B5104BF7
:101D740004461D682B6BB3B9182000F06FFA0246B5
:101D8400286320B90B4B46210B4800F0FFF90B499F
:101D94000B4BC0E900130B4B002183600B238381A1
:101DA4000120C2E904012B6B00221C615A6138BD79
:101DB400140000205D040000740400000E33CDAB59
:101DC40034126DE6ECDE0500164B10B51C68236B6F
:101DD400B3B9182000F042FA0246206320B9124B2E
:101DE4005221124800F0D2F91149124BC0E90013F4
:101DF400114B002183600B2383810120C2E904017C
:101E0400216B0E480B694C690D4A584302FB0400D0
:101E1400A3FB0232013340EB0200C1E9043020F09D
:101E2400004010BD140000205D0400007404000094
:101E34000E33CDAB34126DE6ECDE05002DF45158B3
:101E44002D7F954C002310B504468360818119468B
:101E54004366C28108228361C0E90033C0E90433C8
:101E64005C3000F014F90D4B246263620C4BA362E6
:101E74000C4BE3620C4B23630C4B9C4206D003F1E6
:101E84006802944202D0D0339C4205D104F1580038
:101E9400BDE8104000F06EB910BD00BF0D20000079
:101EA4002F200000672000008B200000A4000020E9
:101EB400024A0349034800F069B800BF0800002043
:101EC400A52A00001800002041680C4B994210B567
:101ED400044601D000F0E4FDA168094B994202D008
:101EE400204600F0DDFDE168064B994204D020460F
:101EF400BDE8104000F0D4BD10BD00BFA400002018
:101F04000C0100207401002010B50B4B04210B4C74
:101F14000B4A20461A600022FFF794FF04F1680080
:101F240001220921FFF78EFF04F1D00002221221C1
:101F3400BDE81040FFF786BFDC010020A4000020AC
:101F4400B51E0000014800F016B900BFE5010020ED
:101F5400014800F011B900BFE501002010B50446A6
:101F6400FFF7F0FF236A1BB1BDE81040FFF7F0BF95
:101F7400044B2362044B1B68002BF5D1FFF7C4FF0D
:101F8400F2E700BFCD1E0000DC0100202DE9F8437C
:101F94000746884614460026D4E90195B9F101099B
:101FA40005D52468002CF7D13046BDE8F883AB8909
:101FB400012B07D9B5F90E30013303D02946384631
:101FC400C04706436835E9E70EB400B59CB06FF02E
:101FD40000411DAB029006900791049108480949FD
:101FE40053F8042B059102A90068019300F048FA04
:101FF400029B00221A701CB05DF804EB03B070471A
:10200400140000200802FFFF10B50C46B1F90E10B1
:1020140000F068F80028ABBF636DA3891B1823F494
:102024008053ACBF6365A38110BD2DE9F0411F4609
:102034008B8905460C46DB05164605D5022300228E
:10204400B1F90E1000F03CF8A3893246B4F90E1031
:10205400284623F48053A3813B46BDE8F04100F0B9
:1020640053B810B50C46B1F90E1000F029F8431C12
:10207400A38915BF606523F4805343F48053A3817F
:1020840018BFA38110BDB1F90E1000F009B80244C5
:102094000346934200D1704703F8011BF9E700009F
:1020A40038B50023054D044608462B6001F052F86C
:1020B400431C02D12B6803B1236038BDE00100202A
:1020C40038B50446064D0846114600222A601A46D1
:1020D40001F068F8431C02D12B6803B1236038BDBA
:1020E400E001002038B50446064D0846114600229A
:1020F4002A601A4601F05EF8431C02D12B6803B132
:10210400236038BDE001002038B50446064D08467A
:10211400114600222A601A4601F064F8431C02D1D9
:102124002B6803B1236038BDE001002070B50D4D6C
:1021340000260D4C641BA410A64209D10B4D0026A9
:102144000B4C01F059F8641BA410A64205D170BDD4
:1021540055F8043B01369847EEE755F8043B013641
:102164009847F2E708320000083200000832000005
:102174000C320000704770477047034613F8012B78
:10218400002AFBD1181A0138704700001FB5144605
:102194001A46094B05461B68D8684CB1074B009199
:1021A4000749CDE901342B4600F0A2FC00F0F7FC0E
:1021B400044B1C46F3E700BF14000020CD040000CC
:1021C400DA0400000805000038B50546002941D0AE
:1021D40051F8043C0C1F002BB8BFE41800F0E8F8D9
:1021E4001D4A136833B9636014602846BDE838405B
:1021F40000F0E4B8A34208D9206821188B4201BF3B
:1022040019685B6809182160EDE71A465B680BB131
:10221400A342FAD911685018A0420BD12068014496
:10222400501811608342E0D118685B680844536019
:102234001060DAE702D90C232B60D6E72068211856
:102244008B4202BF19685B680918636008BF21608C
:102254005460CAE738BD00BFEC010020024B0146C0
:10226400186800F025B800BF1400002070B50F4EA8
:102274000C460546316811B900F066FC3060214611
:10228400284600F061FC431C03D14FF0FF34204684
:1022940070BDC41C24F00304A042F8D0211A2846BF
:1022A40000F052FC0130F2D1EFE700BFE80100205A
:1022B4002DE9F843CD1C064625F0030508350C2D01
:1022C40038BF0C25002D01DBA94204D90C2333604F
:1022D4000020BDE8F883DFF8D48000F069F8D8F86E
:1022E40000301C4644BB29463046FFF7BFFF431C61
:1022F400044658D1D8F800402746002F43D1002C7B
:102304004BD023683946304604EB030900F01CFC2B
:10231400814542D1216830466D1A2946FFF7A6FF50
:1023240001303AD023682B442360D8F800305A682F
:1023340062BBC8F800700FE02268521B20D40B2A3D
:1023440017D96119A342256018BF5960636808BF93
:10235400C8F8001062514B60304600F02FF804F1C9
:102364000B00231D20F00700C21A1CBF1B1AA35028
:10237400AFE76268A3420CBFC8F800205A60EBE7DD
:1023840023466468AEE73C467F68B6E71A465B6856
:10239400A342FBD100235360DEE70C2330463360B5
:1023A40000F00CF894E70560D6E700BFEC010020CC
:1023B4000148FFF7E0BE00BFE40100200148FFF739
:1023C400DBBE00BFE40100202DE9F0471F468E6804
:1023D40082460C46BE4290460B682DD8B1F90C20BB
:1023E40012F4906F26D06569096905EB4505A3EBE6
:1023F40001097B1C05EBD5754B446D109D4238BF1C
:102404001D46530527D52946FFF752FF064660B3FC
:102414004A46216900F0B6FBA38923F4906343F094
:102424008003A38126614E446561A5EB09052660FE
:102434003E46A560BE4200D93E463246414620682B
:1024440000F068FBA36800209B1BA360236833444F
:102454002360BDE8F0872A4600F0A8FB0646002862
:10246400E0D121695046FFF7AFFE0C234FF0FF3057
:10247400CAF80030A38943F04003A381E9E70000D0
:102484002DE9F04F98468B899DB007461B060D46F3
:10249400144610D50B6973B94021FFF709FF286072
:1024A400286130B90C233B604FF0FF301DB0BDE80C
:1024B400F08F40236B610023CDF80C804FF00109AD
:1024C400DFF8A081099320238DF8293030238DF87B
:1024D4002A3023469A4613F8012B0AB1252AF9D14A
:1024E400BAEB040B0BD05B46224629463846FFF76D
:1024F4006BFF013000F0A780099A5A4409929AF8B8
:102504000030002B00F09F8000234FF0FF320AF1CF
:10251400010A049307938DF853301A93CDE90523E8
:10252400544605224F4814F8011B00F01DFB049A81
:10253400D8B9D00644BF20238DF85330110744BFC7
:102544002B238DF853309AF800302A2B15D0079A94
:10255400544600204FF00A0C214611F8013B303B51
:10256400092B4BD9B0B1079214E0A0EB0803A246A3
:1025740009FA03F313430493D2E7039B191D1B6861
:10258400002B0391BBBF5B4242F002020793079307
:10259400B8BF049223782E2B0AD163782A2B32D128
:1025A400039B02341A1D1B6843EAE37303920593E9
:1025B400DFF8C0A003222178504600F0D5FA38B1E4
:1025C400A0EB0A004022049B01348240134304938D
:1025D40014F8011B062224488DF8281000F0C4FAD0
:1025E400002836D0214B1BBB039B073323F0070382
:1025F40008330393099B334409936AE70CFB0232C3
:102604000C460120A8E7002301344FF00A0C1946B8
:102614000593204610F8012B303A092A03D9002BE0
:10262400C6D00591C4E70CFB012104460123F0E761
:1026340003AB2A4604A9384600930D4BAFF3008040
:10264400421C0646D6D1AB895B063FF52DAF0998EF
:102654002CE703AB2A4604A938460093044B00F048
:102664007DF8EDE7090500001305000000000000F7
:10267400CD2300000F0500002DE9F04716469846CB
:102684008A6807460B690C46DDF820909342B8BF70
:102694001346336091F843200AB101333360236851
:1026A400990642BF336802333360256815F0060586
:1026B40006D104F1190AE36832689B1AAB422BDC99
:1026C40094F843302268003B18BF0123920630D4AB
:1026D40004F1430241463846C847013023D02368F9
:1026E4001A3454F80A2C03F00603042B0ABF54F8D6
:1026F4000E5C002533684FF0000608BFED1A54F84D
:10270400123C08BF25EAE5759342C4BF9B1AED1835
:10271400B5421AD1002008E001235246414638460A
:10272400C847013003D14FF0FF30BDE8F0870135D1
:10273400C1E7E1185A1C30200233224481F84300D7
:1027440094F8451082F84310C2E70123224641461B
:102754003846C8470130E6D00136D9E72DE9FF47AE
:102764000F7E914680460C46782F9A460C9E01F1C6
:10277400430207D8622F0AD8002F00F0D180582FC7
:1027840000F0B88004F1420684F842703AE0A7F100
:102794006303152BF6D801A151F823F0F9270000A3
:1027A4000D280000892700008927000089270000E0
:1027B400892700000D2800008927000089270000D0
:1027C40089270000892700000B2900003728000012
:1027D400C528000089270000892700002D29000052
:1027E4008927000037280000892700008927000076
:1027F400CD28000033681A1D1B68326004F14206BC
:1028040084F8423001239CE033682068191D31604C
:10281400060601D51D6803E04506FBD5B3F9005053
:10282400002D03DA2D236D4284F8433058480A23DF
:1028340011E021683368080653F8045B02D44906A2
:1028440048BFADB26F2F3360514814BF0A23082329
:10285400002184F843106668002EA66005DB216819
:102864002E4321F0040121604BD01646B5FBF3F151
:1028740003FB1157C75D06F8017D2F460D46BB4289
:10288400F4D9082B0BD12368DF0708D523696168C5
:102894009942DEBF302306F8013C06F1FF36921B55
:1028A40022614B4603AA21464046CDF800A0FFF71B
:1028B400E3FE01304AD14FF0FF3004B0BDE8F087A9
:1028C400236843F02003236078273248236884F880
:1028D40045701F06316851F8045B02D45F0648BF97
:1028E400ADB23160D90744BF43F0200323601DB16A
:1028F4001023ADE72648E9E7236823F0200323608B
:10290400F6E71646BDE733682568181D616930602F
:102914002E061B6801D5196002E06806FBD51980F4
:10292400002316462361BCE7336800211A1D326078
:102934001E686268304600F017F908B1801B6060B9
:1029440063682361002384F84330AAE7236932468D
:1029540049464046D0470130ADD023689B0713D485
:10296400E068039B9842B8BF1846A6E701233246A5
:1029740049464046D04701309DD00135E36803996C
:102984005B1AAB42F2DCEBE7002504F11906F5E72C
:102994001A0500002B050000B1F90C202DE9F041C7
:1029A400160705460C4654D44B68002B02DC0B6C0E
:1029B400002B48DDE66A002E45D0002312F4805235
:1029C4002F68216A2B6030D0626DA389590705D521
:1029D4006368D21A636B0BB1236CD21A0023E66AC4
:1029E400216A2846B047431CA38906D129681D29BA
:1029F4002BD82A4ACA40D60727D50022D9046260B8
:102A04002269226004D5421C01D12B6803B9606598
:102A1400616B2F60B9B104F14403994202D0284696
:102A2400FFF7D2FB002363630DE001232846B04780
:102A34000246501CC9D12B68002BC6D01D2B01D0D7
:102A4400162B1DD12F60002021E043F040031BB260
:102A54001AE00F69002FF6D093070E680F600CBFC1
:102A64004B690023A6EB07088B60B8F1000FEADD81
:102A740043463A46216A2846A66AB047002808DC3D
:102A8400B4F90C3043F040034FF0FF30A381BDE8AC
:102A9400F0810744A8EB0008E7E700BF01004020ED
:102AA40038B50B6905460C4613B90025284638BDD0
:102AB40018B1036A0BB9FFF751FAB4F90C30002BC3
:102AC400F3D0626ED00704D4990502D4A06DFFF749
:102AD40052FB28462146FFF75FFF636E0546DA077F
:102AE400E4D4A3899B05E1D4A06DFFF745FBDDE7A2
:102AF4000EB403B503AB0146054853F8042B006834
:102B0400019300F0ABF802B05DF804EB03B070473A
:102B140014000020884210B501EB020402D984425B
:102B2400234607D8431EA14208D011F8012B03F80D
:102B3400012FF8E7024401468A4200D110BD13F880
:102B4400014D02F8014DF7E738B50023054D044661
:102B540008462B6000F036FB431C02D12B6803B1FE
:102B6400236038BDE0010020C9B20346024410B519
:102B74009342184601D1002003E0047801338C42CB
:102B8400F6D110BD0A44431E914200D1704710B5DE
:102B940011F8014B914203F8014FF9D110BD062001
:102BA40008B500F02FFA012000F024FB2DE9F041D4
:102BB400074614460D4621B91146BDE8F041FFF71A
:102BC40077BB2AB92546FFF7FFFA2846BDE8F0810E
:102BD40000F034FA8442064602D8B4EB500FF4D81D
:102BE40021463846FFF764FB804608B94546ECE7C2
:102BF400B4422246294628BF3246FFF7C3FF29467E
:102C04003846FFF7E1FAF1E79368013B002B936044
:102C140010B408DA9469A34201DB0A2903D15DF8F0
:102C2400044B00F033B91368581C1060084619703F
:102C34005DF8044B7047F8B506460F461446D518A0
:102C4400AC4201D1002007E03A4614F8011B30469B
:102C5400FFF7DAFF431CF3D1F8BD00002DE9F04F74
:102C64000D469DB014469846064618B1036A0BB942
:102C7400FFF774F96B6ED90705D4AB899A0502D4B2
:102C8400A86DFFF778FAAB891B0701D52B699BB9AF
:102C94002946304600F038F970B16B6EDC0704D574
:102CA4004FF0FF301DB0BDE8F08FAB899805F7D425
:102CB400A86DFFF761FAF3E70023CDF80C804FF01D
:102CC4000109DFF8B481099320238DF829303023DA
:102CD4008DF82A3023469A4613F8012B0AB1252A87
:102CE400F9D1BAEB040B0BD05B4622462946304699
:102CF400FFF7A1FF013000F0A780099A5A44099216
:102D04009AF80030002B00F09F8000234FF0FF3230
:102D14000AF1010A049307938DF853301A93CDE90D
:102D2400052354460522544814F8011BFFF71CFFE1
:102D3400049AD8B9D10644BF20238DF85330130721
:102D440044BF2B238DF853309AF800302A2B15D02A
:102D5400079A544600204FF00A0C214611F8013B13
:102D6400303B092B4BD9B0B1079214E0A0EB080318
:102D7400A24609FA03F313430493D2E7039B191DF4
:102D84001B68002B0391BBBF5B4242F00202079316
:102D94000793B8BF049223782E2B0AD163782A2B89
:102DA40032D1039B02341A1D1B6843EAE373039276
:102DB4000593DFF8D4A0032221785046FFF7D4FE10
:102DC40038B1A0EB0A004022049B01348240134333
:102DD400049314F8011B062228488DF82810FFF7E5
:102DE400C3FE00283FD0264B1BBB039B073323F0B5
:102DF400070308330393099B3B4409936AE70CFBDD
:102E040002320C460120A8E7002301344FF00A0CDB
:102E140019460593204610F8012B303A092A03D9A4
:102E2400002BC6D00591C4E70CFB01210446012305
:102E3400F0E703AB2A4604A930460093114BAFF3E5
:102E440000800746781CD6D16B6ED90705D4AB89B0
:102E54009A0502D4A86DFFF78FF9AB895B063FF59D
:102E64001FAF09981EE703AB2A4604A93046009316
:102E7400044BFFF773FCE4E70905000013050000A9
:102E8400000000003B2C00000F050000F8B50E46C2
:102E94001446054618B1036A0BB9FFF75FF8A36936
:102EA400A360A3891A0701D5236943B9214628469B
:102EB40000F02AF818B14FF0FF373846F8BD236800
:102EC400F6B222693746981A6369834205DC2146C3
:102ED4002846FFF7E5FD0028EDD1A368013BA36078
:102EE40023685A1C22601E70431C62699A4204D0F3
:102EF400A389DB07E1D50A2EDFD121462846FFF757
:102F0400CFFD0028D9D0D6E738B5294B05460C4665
:102F1400186818B1036A0BB9FFF720F8B4F90C303C
:102F2400190722D4DA0607D409222A6043F04003A1
:102F34004FF0FF30A38133E0580712D5616B41B1E4
:102F440004F14403994202D02846FFF73DF90023D7
:102F54006363A38923F02403A381002363602369AB
:102F64002360A38943F00803A38123694BB9A38990
:102F740003F42073B3F5007F03D02146284600F004
:102F84008AF8B4F90C3013F001020AD00022A260CE
:102F940062695242A261226942B913F08000C5D12C
:102FA40038BD990758BF6269A260F4E70020F7E7CB
:102FB400140000201F2938B505460C4604D91623F1
:102FC40003604FF0FF3038BDC26B12B152F82130AC
:102FD4004BB9284600F030F8224601462846BDE8A1
:102FE400384000F017B8012B0AD0591C03D116231E
:102FF40003600120E7E70021204642F824109847A7
:103004000020E0E7024B01461868FFF7D3BF00BF7A
:103014001400002038B50023064D04460846114626
:103024002B6000F0B7F8431C02D12B6803B1236076
:1030340038BD00BFE001002000F09CB851F8043C0A
:10304400181F002BBCBF0B58C018704770B50C4636
:10305400B1F90E1096B0154600291E460CDAA38964
:10306400002113F0800F14BF40234FF4806300202D
:1030740031602B6016B070BD6A4600F049F8002834
:10308400EDDB019901F47041A1F500535942594116
:103094004FF48063EBE78B89F7B59D0706460C4632
:1030A40007D504F14703236023610123636103B05F
:1030B400F0BD01AB6A46FFF7C9FF009F05463046E5
:1030C4003946FFF7F5F848B9B4F90C309A05EED44F
:1030D40023F0030343F00203A381E2E7A389206002
:1030E40043F08003A381019BC4E904075BB1B4F9F5
:1030F4000E10304600F01EF828B1A38923F0030314
:1031040043F00103A381A3891D43A581CFE70000F8
:1031140038B50023064D0446084611462B6000F0DE
:1031240021F8431C02D12B6803B1236038BD00BFD2
:10313400E001002038B50023054D044608462B6005
:1031440000F020F8431C02D12B6803B1236038BD82
:10315400E0010020024B58224FF0FF301A60704704
:10316400E0010020024B58224FF0FF301A607047F4
:10317400E0010020024B58224FF0FF301A607047E4
:10318400E0010020024B582200201A60704700BF63
:10319400E0010020024B58224FF0FF301A607047C4
:1031A400E0010020024B58224FF0FF301A607047B4
:1031B400E0010020024B58224FF0FF301A607047A4
:1031C400E0010020054A0346106810B1034413606F
:1031D4007047034803441360704700BFF0010020A8
:1031E400F4010020024B58224FF0FF301A60704760
:1031F400E0010020FEE700BFF8B500BFF8BC08BC42
:103204009E467047B1050000F8B500BFF8BC08BC85
:103214009E46704789050000100000000000000071
:10322400017A5200027C0E011B0C0D0010000000FC
:103234001800000046EFFFFF10000000000000002F
:043244000000000086
:10324800903200000000002019000000F432000055
:103258006400002000000000F43200006400002038
:1032680000000000F43200006400002000000000AC
:103278006400002064000000F40100200000000049
:08328800F40100200000000029
:10329000008000500000000000000000030000005B
:1032A000A40000201800002000000000A40000205E
:1032B0000C0100207401002000000000000000004C
:1032C00000000000000000000000000000000000FE
:1032D00000000000000000000000000000000000EE
:1032E00000000000000000000000000000000000DE
:0432F00000000000DA
:0400000300000651A2
:00000001FF
