:100000000000042029050000990500009B05000060
:100010009D0500009F050000A1050000A30500004C
:10002000000000000000000000000000A505000026
:10003000A705000000000000A9050000AB050000B6
:10004000AD050000AD05000000000000AD0500009A
:1000500000000000AD0500000000000000000000EE
:10006000AD050000AD050000AD050000AD050000C8
:10007000AD050000AD050000AD050000AD050000B8
:10008000AD050000AD05000000000000000000000C
:10009000AD050000AD0500000000000000000000FC
:1000A000AD050000AD050000AD050000AD05000088
:1000B000AD050000AD050000AD050000AD05000078
:1000C000AD050000AD050000AD050000AD05000068
:1000D000AD05000000000000AD05000000000000BC
:1000E000AD05000000000000AD050000AD050000FA
:1000F00000000000AD05000000000000AD0500009C
:10010000000000000000000000000000AD0500003D
:10011000AD05000000000000AD050000AD050000C9
:1001200000000000AD05000000000000000000001D
:1001300000000000000000000000000000000000BF
:1001400000000000000000000000000000000000AF
:10015000AD050000000000000000000000000000ED
:10016000000000000000000000000000000000008F
:10017000000000000000000000000000000000007F
:10018000000000000000000000000000000000006F
:10019000000000000000000000000000000000005F
:10040000000007410000000025640000004001508A
:0404100014000400D0
:08041400980000000100000047
:10041C000348044B834202D0034B03B11847704787
:10042C000C0000200C00002000000000064B0749C7
:10043C00C91A891048BF0131491003D0044B0BB1C4
:10044C0001481847704700BF0C0000200C0000202A
:10045C000000000010B5064C237843B9FFF7D8FF15
:10046C00044B13B10448AFF300800123237010BD7B
:10047C000C00002000000000F81B000008B5054B24
:10048C001BB105490548AFF30080BDE80840FFF7F4
:10049C00CDBF00BF0000000010000020F81B0000C2
:1004AC00A3F5803A704700BF174B002B08BF134BC6
:1004BC009D46FFF7F5FF00218B460F461348144A63
:1004CC00121A01F055FB0E4B002B00D098470D4B28
:1004DC00002B00D098470020002104000D000D488F
:1004EC00002802D00C48AFF3008001F049FB20003B
:1004FC00290001F00FFB01F029FB00BF00000800F0
:10050C000000000000000000000004200C0000208F
:10051C005800002000000000000000000F49104AA5
:10052C00104B00F010F81049104A114B00F00BF86A
:10053C001049114A114B00F006F81149114A124B9F
:10054C0000F001F806E0521A03DD043A985888507E
:10055C00FBDC704700F0FEF9FFF7A6FF000000205F
:10056C000C0000206C1C00000C0000200C00002073
:10057C00781C00000C0000200C000020781C0000EF
:10058C000C0000200C000020781C0000FEE7FEE7A9
:10059C00FEE7FEE7FEE7FEE7FEE7FEE7FEE7FEE727
:1005AC00FEE700BF80B483B000AF154B1B687B60C7
:1005BC00144B1B683B607B68072B19D13B68023BD3
:1005CC00032B13D801A252F823F000BFE905000059
:1005DC00ED050000F1050000F5050000012308E021
:1005EC00002306E0002304E0002302E0002300E0E7
:1005FC00002318460C37BD465DF8047B704700BFDE
:10060C003001FF003401FF0080B483B000AF154B04
:10061C001B687B60144B1B683B607B68072B19D1F4
:10062C003B68023B032B13D801A252F823F000BF06
:10063C004D0600005106000055060000590600004A
:10064C00012308E0012306E0002304E0002302E07C
:10065C00002300E0002318460C37BD465DF8047BF0
:10066C00704700BF3001FF003401FF0080B483B03D
:10067C0000AF154B1B687B60144B1B683B607B68A1
:10068C00072B19D13B68023B032B13D801A252F85C
:10069C0023F000BFB1060000B5060000B90600004B
:1006AC00BD060000012308E0002306E0002304E05F
:1006BC00002302E0002300E0002318460C37BD465F
:1006CC005DF8047B704700BF3001FF003401FF0070
:1006DC0080B483B000AF154B1B687B60144B1B6858
:1006EC003B607B68072B19D13B68023B032B13D86B
:1006FC0001A252F823F000BF1507000019070000F3
:10070C001D07000021070000012308E0012306E07B
:10071C00012304E0012302E0012300E0002318463A
:10072C000C37BD465DF8047B704700BF3001FF00FD
:10073C003401FF0080B483B000AF154B1B687B60A5
:10074C00144B1B683B607B68072B19D13B68023B41
:10075C00032B13D801A252F823F000BF7907000035
:10076C007D0700008107000085070000012308E0D9
:10077C00002306E0002304E0002302E0002300E055
:10078C00002318460C37BD465DF8047B704700BF4C
:10079C003001FF003401FF0080B483B000AF154B73
:1007AC001B687B60144B1B683B607B68072B19D163
:1007BC003B68023B032B13D801A252F823F000BF75
:1007CC00DD070000E1070000E5070000E907000075
:1007DC00012308E0002306E0002304E0002302E0EC
:1007EC00002300E0002318460C37BD465DF8047B5F
:1007FC00704700BF3001FF003401FF0080B483B0AC
:10080C0000AF154B1B687B60144B1B683B607B680F
:10081C00072B19D13B68023B032B13D801A252F8CA
:10082C0023F000BF41080000450800004908000003
:10083C004D080000012308E0002306E0002304E03B
:10084C00002302E0002300E0002318460C37BD46CD
:10085C005DF8047B704700BF3001FF003401FF00DE
:10086C0080B483B000AF154B1B687B60144B1B68C6
:10087C003B607B68072B19D13B68023B032B13D8D9
:10088C0001A252F823F000BFA5080000A90800003F
:10089C00AD080000B1080000012308E0012306E0C8
:1008AC00012304E0012302E0012300E000231846A9
:1008BC000C37BD465DF8047B704700BF3001FF006C
:1008CC003401FF0080B483B000AF154B1B687B6014
:1008DC00144B1B683B607B68072B19D13B68023BB0
:1008EC00032B13D801A252F823F000BF0909000012
:1008FC000D0900001109000015090000002308E093
:10090C00002306E0002304E0012302E0012300E0C1
:10091C00002318460C37BD465DF8047B704700BFBA
:10092C003001FF003401FF0080B400AF074B084AD0
:10093C001B68C2F84435054B054ADB69C2F84C35D7
:10094C0000BFBD465DF8047B704700BF0080FF0010
:10095C000060005080B582B000AFFFF74FFF034638
:10096C00002B0CD0734B1B68002B08D1714B0D2244
:10097C001A60714B01221A606F4B00221A6000231F
:10098C007B6000237B6011E04FF47F024FF47F010A
:10099C007B68603351F8333019467B686033DB0079
:1009AC0013445B680B607B6801337B607B681F2B97
:1009BC0008D84FF47F027B68603352F83330B3F1C0
:1009CC00FF3FE1D1FFF7B6FE0346002B05D05B4B92
:1009DC0029221A605A4B03221A60FFF7E3FD0346E3
:1009EC00002B07D0574B584A1A604FF05023012266
:1009FC00C3F85825FFF708FE0346002B02D0534BD3
:100A0C0000221A60FFF732FE0346002B11D04FF084
:100A1C005023D3F8003403F00103002B09D04FF01E
:100A2C0050230022C3F814214FF050230022C3F8A6
:100A3C001821FFF74DFE0346002B0DD04FF050232D
:100A4C00D3F8003403F00103002B05D04FF05023F2
:100A5C006FF00102C3F80024FFF79EFE0346002B43
:100A6C0002D0364B65221A60FFF7FAFE0346002BC4
:100A7C0021D0374B1B68002B1DDA4FF0502303227B
:100A8C00C3F818254FF0502301229A6000BF4FF095
:100A9C005023D3F80431002BF9D04FF0502300220F
:100AAC00C3F804214FF050230122DA604FF0502399
:100ABC000122C3F81825FFF705FF0346002B1AD0B7
:100ACC001E4B7E221A60234B7E221A60224B7F2201
:100ADC001A60224B00221A60214B00221A60214B13
:100AEC0000221A60204B00221A60204B00221A6050
:100AFC001F4B00221A6000F03FF81E4BD3F88C30CD
:100B0C001C4A43F44063C2F88C30FFF70DFF194BBD
:100B1C00D3F88830174A43F47003C2F88830BFF317
:100B2C004F8F00BFBFF36F8F00BF00BF0837BD46AC
:100B3C0080BD00BF204A00501C4900500C4700509B
:100B4C003C470050309503504400EFBE4C250350F9
:100B5C00202403503C49005018210050049E03509F
:100B6C00089E035010111050242100502C210050CD
:100B7C00A012205000ED00E080B485B000AF144B03
:100B8C00FB60144BBB604FF47F037B6007E0FA689B
:100B9C00131FFB60BB68191FB96012681A60FA68F2
:100BAC007B689A42F3D23F233B600B4A3B6803F5C8
:100BBC00E07352F82330084923F010023B6803F528
:100BCC00E07341F823201437BD465DF8047B704771
:100BDC00FC0FFF00FCFF07200030005080B483B0F6
:100BEC0000AF78607B681B6800BF0C37BD465DF8B2
:100BFC00047B704780B400AF00BFBD465DF8047B3A
:100C0C00704780B483B000AF786039607B683A6815
:100C1C00C3F8042300BF0C37BD465DF8047B704756
:100C2C0080B582B000AF78600B467B807B887A6899
:100C3C00134400221A607B887A6813441846FFF725
:100C4C00CDFF00BF0837BD4680BD80B483B000AF78
:100C5C00786039607B683A68C3F8082500BF0C37A8
:100C6C00BD465DF8047B704780B483B000AF7860FC
:100C7C000B46FB70FA787B6813441A460123136009
:100C8C0000BF0C37BD465DF8047B704780B483B061
:100C9C0000AF0346FB71FB799B0003F5A0739BB27D
:100CAC0018460C37BD465DF8047B704780B582B0A2
:100CBC0000AF786039603B681B6819467868FFF7AD
:100CCC00C4FFFFF797FF00BF0837BD4680BD80B556
:100CDC0086B000AFF860B96011461A460B46FB713E
:100CEC001346BB714FF48072B968F86800F03AF89B
:100CFC004FF48272B968F86800F034F800237B6115
:100D0C000DE07B69DBB21846FFF7C0FF03461A46BD
:100D1C00B968F86800F026F87B6901337B617B6960
:100D2C00032BEED9FFF766FFBB79002B03D0B96814
:100D3C00F868FFF766FFFFF75DFF00BF1837BD4689
:100D4C0080BD80B582B000AF78600B46FB70FB783D
:100D5C0019467868FFF788FFFFF74CFF00BF08378C
:100D6C00BD4680BD80B584B000AFF860B960134655
:100D7C00FB80FB88A3F580739B08012202FA03F326
:100D8C001A46BB681340002B04D0FB881946F86840
:100D9C00FFF746FF00BF1037BD4680BD80B586B05B
:100DAC0000AFF860B9607A60FB685B791946224A3B
:100DBC007B6842F83130FB685B791F4ADB001344D7
:100DCC001B79002B03D01D4B7B617B6930E0FB68EA
:100DDC001868BB689A7800230021FFF778FFBB687E
:100DEC001B883B61FB681B6807F110021146184613
:100DFC00FFF75CFFFB685B791846BB6819790E4AF4
:100E0C00C30013440A465A71FB685B791846BB68E9
:100E1C00D978094AC30013440A469A71FB685B7976
:100E2C00054ADB00134401221A71054B7B617B6977
:100E3C0018461837BD4680BD280000200500AD0BB4
:100E4C000000AD0B80B582B000AF78607B681B688A
:100E5C0000211846FFF775FF7B685B79044ADB00BD
:100E6C00134402221A7100BF0837BD4680BD00BF73
:100E7C002800002080B483B000AF78607B681B68CA
:100E8C0000BF0C37BD465DF8047B704780B400AFE3
:100E9C0000BFBD465DF8047B704780B400AF00BF57
:100EAC00BD465DF8047B704780B582B000AF7860BA
:100EBC000B467B807B887A68134400221A607B88FF
:100ECC007A6813441846FFF7D5FF00BF0837BD46B4
:100EDC0080BD80B483B000AF786039607B683A68BD
:100EEC00C3F8042300BF0C37BD465DF8047B704784
:100EFC0080B485B000AF78607B68D3F88034FB6039
:100F0C007B68FA68C3F88024FB6818461437BD4622
:100F1C005DF8047B704780B483B000AF78607B6869
:100F2C000822C3F8002500BF0C37BD465DF8047BD2
:100F3C00704780B483B000AF78607B680022C3F840
:100F4C00002500BF0C37BD465DF8047B704780B4AC
:100F5C0085B000AFF860B9607A60FB68BA68C3F816
:100F6C000C25FB687A68C3F8142500BF1437BD46FE
:100F7C005DF8047B704780B485B000AFF860B96051
:100F8C007A60FB68BA68C3F80825FB687A68C3F80E
:100F9C00102500BF1437BD465DF8047B704780B444
:100FAC0083B000AF78600B46FB70FB787A68134413
:100FBC0001221A6000BF0C37BD465DF8047B7047F8
:100FCC0080B483B000AF786039603B685A783B6876
:100FDC009B781343DBB21A463B689B8813433A68F1
:100FEC0012781A437B68C3F86C2500BF0C37BD46DA
:100FFC005DF8047B704780B483B000AF78603960D3
:10100C007B683A68C3F8242500BF0C37BD465DF8F1
:10101C00047B704780B582B000AF786039603B6864
:10102C001B6919467868FFF7E6FF3B6814331946CD
:10103C007868FFF7C5FF3B689B7E83F00103DBB24A
:10104C00002B07D03B6819683B685B681A467868C8
:10105C00FFF77DFF3B681B7D012B0ED13B689B7E10
:10106C0083F00103DBB2002B07D03B6899683B6827
:10107C00DB681A467868FFF77EFFFFF707FF00BFB3
:10108C000837BD4680BD80B584B000AFF860B9604C
:10109C0011461A460B46FB711346BB714FF4807216
:1010AC00B968F86800F087F84FF48272B968F8688C
:1010BC0000F081F84FF48472B968F86800F07BF89E
:1010CC004FF48872B968F86800F075F84FF48E72B6
:1010DC00B968F86800F06FF84FF49072B968F86866
:1010EC0000F069F84FF49272B968F86800F063F890
:1010FC004FF4A272B968F86800F05DF84FF4A6726C
:10110C00B968F86800F057F84FF4A872B968F86835
:10111C0000F051F84FF4AC72B968F86800F04BF875
:10112C00FFF7B4FEBB79002B03D0B968F868FFF762
:10113C00D0FEFFF7ABFE00BF1037BD4680BD80B5BB
:10114C0084B000AF7860FFF7A8FE7868FFF7D0FE98
:10115C00F860FFF7A2FEFB6818461037BD4680BD4D
:10116C0080B582B000AF78607868FFF7D4FEFFF7E7
:10117C008DFE00BF0837BD4680BD80B582B000AF84
:10118C0078607868FFF7D5FEFFF780FE00BF083760
:10119C00BD4680BD80B582B000AF78600B46FB7059
:1011AC00FB7819467868FFF7FAFEFFF76FFE00BF71
:1011BC000837BD4680BD80B584B000AFF860B9601B
:1011CC001346FB80FB88A3F580739B08012202FA6F
:1011DC0003F31A46BB681340002B04D0FB88194656
:1011EC00F868FFF761FE00BF1037BD4680BD0000F8
:1011FC0080B584B000AF78600023FB60786800F0A5
:10120C009CF80346002B02D0012B03D004E0054BC5
:10121C00FB6001E0044BFB60FB6818461037BD46D1
:10122C0080BD00BF002584500028845080B586B056
:10123C0000AF7860084611461A460346FB700B4611
:10124C00BB7013467B703B1D1846FFF7D1FF7861CE
:10125C007A687B69803253F822303B61114BFB601A
:10126C00FB68DB433A6913403B61FA78BB785B005F
:10127C001A437B789B001A4397F820301B021A43C1
:10128C0097F824301B0413433A6913433B617A6883
:10129C007B698032396943F8221000BF1837BD468C
:1012AC0080BD00BF0F0F030080B584B002AF786023
:1012BC00002301930023009300230122012178686D
:1012CC00FFF7B4FF00BF0837BD4680BD80B584B0C2
:1012DC0002AF78600B46FB70FB7800220192002273
:1012EC000092002200217868FFF7A0FF00BF0837AA
:1012FC00BD4680BD80B584B000AF78603B1D1846FC
:10130C00FFF776FFF8607B68012202FA03F31946B7
:10131C00F86800F004F800BF1037BD4680BD80B4FB
:10132C0083B000AF786039607B683A689A6000BF20
:10133C000C37BD465DF8047B704780B485B000AFB8
:10134C0078607B681B68FB60FB6803F01F027B689E
:10135C001A60FB685B0918461437BD465DF8047BC0
:10136C00704780B582B000AF78607868FFF79CFF5B
:10137C00FFF78CFD00BF0837BD4680BD80B582B03D
:10138C0000AF78600B46FB70FB7819467868FFF766
:10139C009DFFFFF77BFD00BF0837BD4680BD80B5C4
:1013AC0082B000AF78607868FFF7A4FFFFF76EFD9E
:1013BC0000BF0837BD4680BD80B58AB000AF7860ED
:1013CC0039603B6893F8203083F00103DBB2002BCB
:1013DC0019D03B681B68B3F1FF3F09D03B681B6811
:1013EC001846FFF7DCFF3B681B681846FFF7B9FF90
:1013FC003B685B68B3F1FF3F05D03B685B6800213D
:10140C001846FFF7BBFF3B689B7E012B21D13B6845
:10141C0093F8203083F00103DBB2002B19D03B682A
:10142C00DB68B3F1FF3F05D03B68DB680021184651
:10143C00FFF7A4FF3B689B68B3F1FF3F09D03B6803
:10144C009B681846FFF7ABFF3B689B681846FFF795
:10145C0088FF07F10C0300221A605A609A60DA6068
:10146C001A615A619A613B681B68FB603B685B6858
:10147C003B613B689B687B613B68DB68BB613B689D
:10148C005B69FB613B6893F8213087F826303A683A
:10149C0007F120031A321068186092889A807B68D2
:1014AC001B6807F10C0211461846FFF7B3FD78686C
:1014BC0000F01EF87B681B7919460B4A0B46DB00C3
:1014CC000B449B00134404331B68002B07D07B6830
:1014DC0018683B681A7E01230449FFF7D4FD00BF4E
:1014EC002837BD4680BD00BF3000002010034200ED
:1014FC0080B586B000AF78607B681B6803F26453DC
:10150C00FB607B681B6803F5AD63BB60BB681B6845
:10151C00012B05D17B681B680C211846FFF73AFE9E
:10152C00FB681B68012B26D17B681B681846FFF7EC
:10153C0017FE7B681B6804211846FFF72BFE00235F
:10154C00FB7549F640433B61FB681B68002B02D1DD
:10155C000123FB7505E03B69013B3B613B69002BBB
:10156C00F2D17B681B681846FFF7E9FD7B681B68A6
:10157C001846FFF702FE00BF1837BD4680BD0000BD
:10158C0080B586B000AFF860B9607A60FB681B79F3
:10159C001A461346DB0013449B00234A13447B6119
:1015AC00224B3B617B6993F82030002B03D0204BFE
:1015BC003B613B6934E07B697A685A60BB68002BFD
:1015CC001BD0BB681A697B691A60BB6893F8201042
:1015DC007A6992F8223061F3000382F82230BB68FA
:1015EC0093F821107A6992F8223061F3410382F862
:1015FC002230B968F868FFF7DFFEFB681B681846F5
:10160C00FFF7AEFD7B6900229A617B690022DA61EB
:10161C007B6900225A617B69012283F820203B6997
:10162C0018461837BD4680BD300000200000AD0BB9
:10163C000500AD0B80B483B000AF7860044A7B68C2
:10164C00136000BF0C37BD465DF8047B704700BFCC
:10165C0010E000E080B483B000AF7860044A7B688F
:10166C00536000BF0C37BD465DF8047B704700BF6C
:10167C0010E000E080B400AF034B9B681846BD46F9
:10168C005DF8047B704700BF10E000E080B483B0CD
:10169C0000AF7860074B1B68074AA2FB03239B092A
:1016AC007A6802FB03F318460C37BD465DF8047BE1
:1016BC00704700BF00000020D34D621080B500AF12
:1016CC006FF07F40FFF7C6FF0520FFF7B3FF00BFA9
:1016DC0080BD80B584B000AF7860FFF7CBFFF860B9
:1016EC0000BFFFF7C7FF0246FB689B1A23F07F433E
:1016FC007A689A42F5D800BF00BF1037BD4680BD4E
:10170C0080B584B000AF78601E4B1B681E4AA2FBEC
:10171C0003239B091D4AB2FBF3F37A68B2FBF3F384
:10172C00FB60184B1B68184AA2FB03239B09174A42
:10173C00B2FBF3F27B68B3FBF2F101FB02F29B1AF2
:10174C00BB600FE00F4B1B680F4AA2FB03239B09E6
:10175C000E4AB2FBF3F31846FFF798FF0346184600
:10176C00FFF7B7FFFB685A1EFA60002BEAD1B86886
:10177C00FFF78CFF03461846FFF7ABFF00BF10378F
:10178C00BD4680BD00000020D34D6210FFFF7F00DE
:10179C0080B584B000AF78600023FB60786800F0FF
:1017AC00D2F80346002B02D0012B03D004E0054BEA
:1017BC00FB6001E0044BFB60FB6818461037BD462C
:1017CC0080BD00BF002584500028845080B586B0B1
:1017DC0000AF7860084611461A460346FB700B466C
:1017EC00BB7013467B703B1D1846FFF7D1FF786129
:1017FC007A687B69803253F822303B61114BFB6075
:10180C00FB68DB433A6913403B61FA78BB785B00B9
:10181C001A437B789B001A4397F820301B021A431B
:10182C0097F824301B0413433A6913433B617A68DD
:10183C007B698032396943F8221000BF1837BD46E6
:10184C0080BD00BF0F0F030080B584B002AF78607D
:10185C0000230193002300930023012201217868C7
:10186C00FFF7B4FF00BF0837BD4680BD80B584B01C
:10187C0002AF78600B46FB70FB78002201920022CD
:10188C000092002200217868FFF7A0FF00BF083704
:10189C00BD4680BD80B584B000AF78603B1D184656
:1018AC00FFF776FFF8607B68012202FA03F3194612
:1018BC00F86800F02CF800BF1037BD4680BD80B52D
:1018CC0084B000AF78603B1D1846FFF761FFF860ED
:1018DC007B68012202FA03F31946F86800F025F838
:1018EC0000BF1037BD4680BD80B582B000AF7860B8
:1018FC0039603B68002B03D17868FFF7E0FF02E00A
:10190C007868FFF7C7FF00BF0837BD4680BD80B4BD
:10191C0083B000AF786039607B683A689A6000BF2A
:10192C000C37BD465DF8047B704780B483B000AFC4
:10193C00786039607B683A68DA6000BF0C37BD4666
:10194C005DF8047B704780B485B000AF78607B682D
:10195C001B68FB60FB6803F01F027B681A60FB6866
:10196C005B0918461437BD465DF8047B70470000D0
:10197C0080B58CB000AF2A4A07F1240392E803002B
:10198C0018600433198007F12403002219462548F6
:10199C00FFF704FAF8622348FFF754FA03211720E3
:1019AC00FFF764FFFFF78AFE3B462422002118460E
:1019BC0000F0DEF814233B6016237B604FF0FF33FE
:1019CC00BB604FF0FF33FB604FF0EB737B61072381
:1019DC003B763B46002219461348FFF7D1FD1C20ED
:1019EC00FFF732FF1D20FFF72FFF1E20FFF72CFF04
:1019FC001F20FFF729FF01211C20FFF775FF012194
:101A0C001D20FFF771FF01211E20FFF76DFF012143
:101A1C001F20FFF769FF00BF3037BD4680BD00BFF8
:101A2C00000400000C0400000400002080B584B009
:101A3C0000AF78600023FB60786800F057F803462D
:101A4C00002B02D0012B03D004E0054BFB6001E01E
:101A5C00044BFB60FB6818461037BD4680BD00BFC9
:101A6C00002584500028845080B584B000AF786085
:101A7C003B1D1846FFF7DAFFF860FB685B68BB603C
:101A8C00BB68DA437B68012101FA03F31A40FB6857
:101A9C009A607B6801229A40BB681A40FB68DA6046
:101AAC0000BF1037BD4680BD80B584B000AF7860F4
:101ABC003B1D1846FFF7BAFFF860F86800F00AF80B
:101ACC0002467B6822FA03F303F001031846103731
:101ADC00BD4680BD80B483B000AF78607B681B6965
:101AEC0018460C37BD465DF8047B704780B485B052
:101AFC0000AF78607B681B68FB60FB6803F01F021B
:101B0C007B681A60FB685B0918461437BD465DF8A4
:101B1C00047B704780B582B000AFFFF729FF01232B
:101B2C007B600A20FFF7ECFD1720FFF7BDFF034693
:101B3C003B607B68012B05D13B68002B02D11C203C
:101B4C00FFF792FF3B687B60EBE7000008B5064BA4
:101B5C00044613B10021AFF30080044B1B6803B1A2
:101B6C009847204600F030F8000000005400002098
:101B7C0002440346934200D1704703F8011BF9E776
:101B8C0070B50D4D00260D4C641BA410A64209D156
:101B9C000B4D00260B4C00F019F8641BA410A64248
:101BAC0005D170BD55F8043B01369847EEE755F862
:101BBC00043B01369847F2E7E41B0000E41B0000ED
:101BCC00E41B0000E81B0000FEE700BFF8B500BFF7
:101BDC00F8BC08BC9E46704789040000F8B500BFED
:101BEC00F8BC08BC9E467047610400001000000061
:101BFC0000000000017A5200027C0E011B0C0D004B
:101C0C001000000018000000000000001000000090
:081C1C000000000000000000C0
:101C24006C1C00000000002003000000781C000071
:101C34000C00002000000000781C00000C000020B4
:101C440000000000781C00000C00002000000000D0
:101C54000C000020130000005800002000000000C9
:081C6400580000200000000000
:0C1C6C000090D003008000500000000039
:0400000300000529CB
:00000001FF
